{
    "contractName": "Lock",
    "abi": [
        {
            "inputs": [
                {
                    "internalType": "address",
                    "name": "_vendedor",
                    "type": "address"
                }
            ],
            "stateMutability": "nonpayable",
            "type": "constructor"
        },
        {
            "anonymous": false,
            "inputs": [
                {
                    "indexed": false,
                    "internalType": "uint256",
                    "name": "amount",
                    "type": "uint256"
                },
                {
                    "indexed": true,
                    "internalType": "address",
                    "name": "comprador",
                    "type": "address"
                }
            ],
            "name": "Deposit",
            "type": "event"
        },
        {
            "anonymous": false,
            "inputs": [
                {
                    "indexed": false,
                    "internalType": "uint256",
                    "name": "amount",
                    "type": "uint256"
                },
                {
                    "indexed": true,
                    "internalType": "address",
                    "name": "vendedor",
                    "type": "address"
                }
            ],
            "name": "Withdraw",
            "type": "event"
        },
        {
            "anonymous": false,
            "inputs": [
                {
                    "indexed": true,
                    "internalType": "address",
                    "name": "oldOwner",
                    "type": "address"
                },
                {
                    "indexed": true,
                    "internalType": "address",
                    "name": "newOwner",
                    "type": "address"
                }
            ],
            "name": "changeOwner",
            "type": "event"
        },
        {
            "inputs": [],
            "name": "balance",
            "outputs": [
                {
                    "internalType": "uint256",
                    "name": "",
                    "type": "uint256"
                }
            ],
            "stateMutability": "view",
            "type": "function"
        },
        {
            "inputs": [],
            "name": "comprador",
            "outputs": [
                {
                    "internalType": "address",
                    "name": "",
                    "type": "address"
                }
            ],
            "stateMutability": "view",
            "type": "function"
        },
        {
            "inputs": [
                {
                    "internalType": "uint256",
                    "name": "_amount",
                    "type": "uint256"
                }
            ],
            "name": "deposit",
            "outputs": [
                {
                    "internalType": "bool",
                    "name": "",
                    "type": "bool"
                }
            ],
            "stateMutability": "payable",
            "type": "function"
        },
        {
            "inputs": [],
            "name": "getOwner",
            "outputs": [
                {
                    "internalType": "address",
                    "name": "",
                    "type": "address"
                }
            ],
            "stateMutability": "view",
            "type": "function"
        },
        {
            "inputs": [
                {
                    "internalType": "address",
                    "name": "_newOwner",
                    "type": "address"
                }
            ],
            "name": "transferOwnership",
            "outputs": [],
            "stateMutability": "nonpayable",
            "type": "function"
        },
        {
            "inputs": [],
            "name": "vendedor",
            "outputs": [
                {
                    "internalType": "address",
                    "name": "",
                    "type": "address"
                }
            ],
            "stateMutability": "view",
            "type": "function"
        },
        {
            "inputs": [
                {
                    "internalType": "uint256",
                    "name": "_amount",
                    "type": "uint256"
                }
            ],
            "name": "withdraw",
            "outputs": [
                {
                    "internalType": "bool",
                    "name": "",
                    "type": "bool"
                }
            ],
            "stateMutability": "nonpayable",
            "type": "function"
        }
    ],
    "bytecode": "608060405234801561001057600080fd5b506040516105a63803806105a683398101604081905261002f91610062565b60008054336001600160a01b031991821617909155600180549091166001600160a01b0392909216919091179055610092565b60006020828403121561007457600080fd5b81516001600160a01b038116811461008b57600080fd5b9392505050565b610505806100a16000396000f3fe6080604052600436106100705760003560e01c8063893d20e81161004e578063893d20e814610102578063b69ef8a814610120578063b6b55f2514610143578063f2fde38b1461015657600080fd5b80630f50b6e7146100755780632e1a7d4d146100b25780633182237f146100e2575b600080fd5b34801561008157600080fd5b50600254610095906001600160a01b031681565b6040516001600160a01b0390911681526020015b60405180910390f35b3480156100be57600080fd5b506100d26100cd36600461040d565b610178565b60405190151581526020016100a9565b3480156100ee57600080fd5b50600154610095906001600160a01b031681565b34801561010e57600080fd5b506000546001600160a01b0316610095565b34801561012c57600080fd5b50610135610282565b6040519081526020016100a9565b6100d261015136600461040d565b6102c1565b34801561016257600080fd5b50610176610171366004610426565b610326565b005b600080546001600160a01b031633146101ac5760405162461bcd60e51b81526004016101a390610456565b60405180910390fd5b814710156101fc5760405162461bcd60e51b815260206004820152601b60248201527f456c2062616c616e636520657320696e737566696369656e74652e000000000060448201526064016101a3565b6001546040516001600160a01b039091169083156108fc029084906000818181858888f19350505050158015610236573d6000803e3d6000fd5b506001546040518381526001600160a01b03909116907f8353ffcac0876ad14e226d9783c04540bfebf13871e868157d2a391cad98e918906020015b60405180910390a2506001919050565b600080546001600160a01b031633146102ad5760405162461bcd60e51b81526004016101a390610456565b503360009081526003602052604090205490565b336000908152600360205260408120805483919083906102e29084906104a8565b90915550506002546040518381526001600160a01b03909116907f4bcc17093cdf51079c755de089be5a85e70fa374ec656c194480fbdcda224a5390602001610272565b6000546001600160a01b031633146103505760405162461bcd60e51b81526004016101a390610456565b6103598161035c565b50565b6001600160a01b0381166103b25760405162461bcd60e51b815260206004820152601d60248201527f4e6577206f776e657220697320746865207a65726f206164647265737300000060448201526064016101a3565b600080546040516001600160a01b03808516939216917ff00d4b5dada0c24c7fb2a5db4750ec67a2d8451700e0be719b9abbfc2be6db9391a3600080546001600160a01b0319166001600160a01b0392909216919091179055565b60006020828403121561041f57600080fd5b5035919050565b60006020828403121561043857600080fd5b81356001600160a01b038116811461044f57600080fd5b9392505050565b60208082526032908201527f53656e6465722773206164647265737320646f6573206e6f74206d61746368206040820152713a34329031b7b73a3930b1ba1037bbb732b960711b606082015260800190565b808201808211156104c957634e487b7160e01b600052601160045260246000fd5b9291505056fea2646970667358221220d566300e33cf0fff165ddcabc7499b8589b500b74cba70877181494cff30516264736f6c63430008130033",
    "sourcePath": "/home/lean/Escritorio/peer-to-peer/contracts/Lock.sol",
    "compiler": {
        "name": "solc",
        "version": "0.8.19+commit.7dd6d404"
    },
    "functionHashes": {
        "balance()": "b69ef8a8",
        "comprador()": "0f50b6e7",
        "deposit(uint256)": "b6b55f25",
        "getOwner()": "893d20e8",
        "transferOwnership(address)": "f2fde38b",
        "vendedor()": "3182237f",
        "withdraw(uint256)": "2e1a7d4d"
    },
    "gasEstimates": {
        "creation": {
            "codeDepositCost": "257000",
            "executionCost": "infinite",
            "totalCost": "infinite"
        },
        "external": {
            "balance()": "4542",
            "comprador()": "2327",
            "deposit(uint256)": "28262",
            "getOwner()": "2320",
            "transferOwnership(address)": "30460",
            "vendedor()": "2371",
            "withdraw(uint256)": "infinite"
        }
    }
}